010000010074101001029394092010-02-04ERNESTO FRANCISCO   ORTIZ               PEREZ               N1973-01-01ACXMES8190
020000020074209004567899732011-04-05ANDRES              CRUZ                OSORIO              N1977-04-21INXME900ER
030000030074308601938383812011-06-07GILBERTO            ROMERO              FILORIO             E1970-04-11INXMER9888
040000040074407501940493922001-08-10JOSE ANGEL          BECERRA             PEREZ               E1980-01-12ACIPM23458
050000050074506301950493942002-10-11MONICA              PAREDES             MEDINA              E1982-02-22ACAONR1088
060000060074605201960493952003-12-10ARIADNA             PACHECO             RUIZ                N1984-03-13ACDIBR2983
070000070074704401970493962004-01-01MARISOL             RODRIGUEZ           CAMPOS              E1985-04-14ACFUVR3848
080000080074803601980493972005-03-03BRISA               SANCHEZ             VARGAS              N1986-05-18ACGYCR4788
090000090074902701990493982006-05-02JOSE ALBERTO        JIMENEZ             HIGUERA             N1986-06-21ACHTXR5688
000000100074001801900493992007-07-04HUGO                ALCANTARA           RUIZ                N1987-07-22ACJTAR5588
010000110074102901931493902008-09-09REGINA              ROMERO              ROMAN               E1992-08-01ACKRSR6538
020000120074203601932493102009-11-22CAROLINA            HERRERA             DEL VILLAR          E1984-09-02ACLEDR7838
030000130074304401933493112000-02-20BERNARDO            SEGURA              OSEGUERA            E1993-10-10ACKWFR8428
040000140074405301934493122010-04-22LUIS ANTONIO        JIMENEZ             PACHECO             N1998-11-30ACQQGR9898
050000150074506001935493132011-06-30SUSANA              ZAVALETA            SUMAYA              N1997-12-31INWAHR1808
060000160074607501936493142002-08-29REGINA              OROZCO              ESCOBAR             E1999-01-29ACESJR2881
070000170074708401937493152001-10-31PAULINA             ECHEVERRIA          DEL VALLE           N1993-02-28ACRDKR3238
080000180074809801938483162002-12-15ROSARIO             VILLEGAS            VIGUERAS            N1994-03-29INTFLR4848
090000190074908601930473172003-01-30GUADALUPE           PEREZ               CRUZ                N1980-04-19ACXMER1888
000000200074807401930453182004-03-20JORGE               LOPEZ               CERON               N1965-05-09INXMER2888
010000210074706301930443192005-05-30ALEJANDRA           SANDOVAL            ROMERO              N1966-06-04ACXMER3888
020000220074605201930433202006-07-11VALERIA             ORTIZ               ORTIZ               E1967-07-14ACXMER4888
030000230074504501930423212007-09-12EMILIO              CAMPOHERMOSO        JUAREZ              N1968-08-24ACXMER5888
040000240074403701930419222008-11-13RODRIGO             JUAREZ              GUERRERO            N1969-09-08INXMER6888
050000250074303801930498232009-02-14MARIA ELENA         HERNANDEZ           ORCACITAS           E1970-10-18ACXMER7888
060000260074202501930497242011-04-15MARIANA             ALCAZAR             SANCHEZ             N1980-11-30ACXMER8888
070000270074104301930496252012-05-16MIRIAM              BARCENAS            OCAMPO              N1982-12-01ACXMER9888
080000280074203201930495352013-02-17JUAN PABLO          ARTEAGA             ZUBIAUR             N1983-11-02ACXMER9188
090000290074303601930494332016-02-18FERNANDO            ESCOBAR             AMBRIZ              N1984-09-03ACXMER9288
000000300074403701930493541999-12-30MAURICIO            GARCES              URBINA              N1985-05-04INXMER9388
